{
  "_format": "hh-sol-artifact-1",
  "contractName": "WavePortal",
  "sourceName": "contracts/WavePortal.sol",
  "abi": [
    {
      "inputs": [],
      "stateMutability": "payable",
      "type": "constructor"
    },
    {
      "anonymous": false,
      "inputs": [
        {
          "indexed": true,
          "internalType": "address",
          "name": "from",
          "type": "address"
        },
        {
          "indexed": false,
          "internalType": "string",
          "name": "message",
          "type": "string"
        },
        {
          "indexed": false,
          "internalType": "uint256",
          "name": "timestamp",
          "type": "uint256"
        }
      ],
      "name": "NewWave",
      "type": "event"
    },
    {
      "inputs": [],
      "name": "getAllWaves",
      "outputs": [
        {
          "components": [
            {
              "internalType": "address",
              "name": "from",
              "type": "address"
            },
            {
              "internalType": "string",
              "name": "message",
              "type": "string"
            },
            {
              "internalType": "uint256",
              "name": "timestamp",
              "type": "uint256"
            }
          ],
          "internalType": "struct WavePortal.Wave[]",
          "name": "",
          "type": "tuple[]"
        }
      ],
      "stateMutability": "view",
      "type": "function"
    },
    {
      "inputs": [],
      "name": "getTotalWaves",
      "outputs": [
        {
          "internalType": "uint256",
          "name": "",
          "type": "uint256"
        }
      ],
      "stateMutability": "view",
      "type": "function"
    },
    {
      "inputs": [
        {
          "internalType": "address",
          "name": "_address",
          "type": "address"
        }
      ],
      "name": "getWavesFrom",
      "outputs": [
        {
          "internalType": "uint256",
          "name": "",
          "type": "uint256"
        }
      ],
      "stateMutability": "view",
      "type": "function"
    },
    {
      "inputs": [
        {
          "internalType": "string",
          "name": "_message",
          "type": "string"
        }
      ],
      "name": "wave",
      "outputs": [],
      "stateMutability": "nonpayable",
      "type": "function"
    },
    {
      "inputs": [
        {
          "internalType": "address",
          "name": "",
          "type": "address"
        }
      ],
      "name": "wavesMap",
      "outputs": [
        {
          "internalType": "uint256",
          "name": "waves",
          "type": "uint256"
        },
        {
          "internalType": "uint256",
          "name": "lastWave",
          "type": "uint256"
        }
      ],
      "stateMutability": "view",
      "type": "function"
    }
  ],
  "bytecode": "0x60806040526200004f6040518060400160405280600f81526020017f57617665506f7274616c206261626500000000000000000000000000000000008152506200007760201b620007fe1760201c565b606444426200005f9190620001c4565b6200006b919062000261565b60018190555062000308565b62000117816040516024016200008e919062000184565b6040516020818303038152906040527f41304fac000000000000000000000000000000000000000000000000000000007bffffffffffffffffffffffffffffffffffffffffffffffffffffffff19166020820180517bffffffffffffffffffffffffffffffffffffffffffffffffffffffff83818316178352505050506200011a60201b60201c565b50565b60008151905060006a636f6e736f6c652e6c6f679050602083016000808483855afa5050505050565b60006200015082620001a8565b6200015c8185620001b3565b93506200016e8185602086016200022b565b6200017981620002f7565b840191505092915050565b60006020820190508181036000830152620001a0818462000143565b905092915050565b600081519050919050565b600082825260208201905092915050565b6000620001d18262000221565b9150620001de8362000221565b9250827fffffffffffffffffffffffffffffffffffffffffffffffffffffffffffffffff0382111562000216576200021562000299565b5b828201905092915050565b6000819050919050565b60005b838110156200024b5780820151818401526020810190506200022e565b838111156200025b576000848401525b50505050565b60006200026e8262000221565b91506200027b8362000221565b9250826200028e576200028d620002c8565b5b828206905092915050565b7f4e487b7100000000000000000000000000000000000000000000000000000000600052601160045260246000fd5b7f4e487b7100000000000000000000000000000000000000000000000000000000600052601260045260246000fd5b6000601f19601f8301169050919050565b61139680620003186000396000f3fe608060405234801561001057600080fd5b50600436106100575760003560e01c8063449d46c01461005c5780639a2cdc0814610078578063a2b2c66214610096578063a5284023146100c7578063bd43a908146100f7575b600080fd5b61007660048036038101906100719190610be0565b610115565b005b610080610570565b60405161008d9190610f8b565b60405180910390f35b6100b060048036038101906100ab9190610bb7565b6105bb565b6040516100be929190610fa6565b60405180910390f35b6100e160048036038101906100dc9190610bb7565b6105df565b6040516100ee9190610f8b565b60405180910390f35b6100ff6106ad565b60405161010c9190610e49565b60405180910390f35b4261012c600360003373ffffffffffffffffffffffffffffffffffffffff1673ffffffffffffffffffffffffffffffffffffffff168152602001908152602001600020600101546101669190611096565b106101a6576040517f08c379a000000000000000000000000000000000000000000000000000000000815260040161019d90610f4b565b60405180910390fd5b42600360003373ffffffffffffffffffffffffffffffffffffffff1673ffffffffffffffffffffffffffffffffffffffff1681526020019081526020016000206001018190555060016000808282546101ff9190611096565b925050819055506001600360003373ffffffffffffffffffffffffffffffffffffffff1673ffffffffffffffffffffffffffffffffffffffff16815260200190815260200160002060000160008282546102599190611096565b9250508190555061029f6040518060400160405280601181526020017f2573206465752074636861757a696e686f00000000000000000000000000000081525033610897565b600260405180606001604052803373ffffffffffffffffffffffffffffffffffffffff16815260200183815260200142815250908060018154018082558091505060019003906000526020600020906003020160009091909190915060008201518160000160006101000a81548173ffffffffffffffffffffffffffffffffffffffff021916908373ffffffffffffffffffffffffffffffffffffffff160217905550602082015181600101908051906020019061035e929190610a97565b506040820151816002015550506064600154424461037c9190611096565b6103869190611096565b61039091906111cd565b6001819055506103d76040518060400160405280601481526020017f23205365656420616c6561746f7269613a202564000000000000000000000000815250600154610933565b60326001541161056d576104206040518060400160405280600a81526020017f25732067616e686f75210000000000000000000000000000000000000000000081525033610897565b6000655af3107a400090504781111561046e576040517f08c379a000000000000000000000000000000000000000000000000000000000815260040161046590610f6b565b60405180910390fd5b60003373ffffffffffffffffffffffffffffffffffffffff168260405161049490610e34565b60006040518083038185875af1925050503d80600081146104d1576040519150601f19603f3d011682016040523d82523d6000602084013e6104d6565b606091505b505090508061051a576040517f08c379a000000000000000000000000000000000000000000000000000000000815260040161051190610f2b565b60405180910390fd5b3373ffffffffffffffffffffffffffffffffffffffff167f6728ef66814a55b797863bf8ffcd954b19cbca4ed4f0e6cf04c980705fd82c368442604051610562929190610efb565b60405180910390a250505b50565b60006105b36040518060400160405280601981526020017f546f74616c2064652025642074636861757a696e686f733a2000000000000000815250600054610933565b600054905090565b60036020528060005260406000206000915090508060000154908060010154905082565b60006106636040518060400160405280601581526020017f2573206465752025642074636861757a696e686f73000000000000000000000081525083600360008673ffffffffffffffffffffffffffffffffffffffff1673ffffffffffffffffffffffffffffffffffffffff168152602001908152602001600020600001546109cf565b600360008373ffffffffffffffffffffffffffffffffffffffff1673ffffffffffffffffffffffffffffffffffffffff168152602001908152602001600020600001549050919050565b60606002805480602002602001604051908101604052809291908181526020016000905b828210156107f557838290600052602060002090600302016040518060600160405290816000820160009054906101000a900473ffffffffffffffffffffffffffffffffffffffff1673ffffffffffffffffffffffffffffffffffffffff1673ffffffffffffffffffffffffffffffffffffffff16815260200160018201805461075a9061116a565b80601f01602080910402602001604051908101604052809291908181526020018280546107869061116a565b80156107d35780601f106107a8576101008083540402835291602001916107d3565b820191906000526020600020905b8154815290600101906020018083116107b657829003601f168201915b50505050508152602001600282015481525050815260200190600101906106d1565b50505050905090565b610894816040516024016108129190610e6b565b6040516020818303038152906040527f41304fac000000000000000000000000000000000000000000000000000000007bffffffffffffffffffffffffffffffffffffffffffffffffffffffff19166020820180517bffffffffffffffffffffffffffffffffffffffffffffffffffffffff8381831617835250505050610a6e565b50565b61092f82826040516024016108ad929190610e8d565b6040516020818303038152906040527f319af333000000000000000000000000000000000000000000000000000000007bffffffffffffffffffffffffffffffffffffffffffffffffffffffff19166020820180517bffffffffffffffffffffffffffffffffffffffffffffffffffffffff8381831617835250505050610a6e565b5050565b6109cb8282604051602401610949929190610efb565b6040516020818303038152906040527f9710a9d0000000000000000000000000000000000000000000000000000000007bffffffffffffffffffffffffffffffffffffffffffffffffffffffff19166020820180517bffffffffffffffffffffffffffffffffffffffffffffffffffffffff8381831617835250505050610a6e565b5050565b610a698383836040516024016109e793929190610ebd565b6040516020818303038152906040527f07c81217000000000000000000000000000000000000000000000000000000007bffffffffffffffffffffffffffffffffffffffffffffffffffffffff19166020820180517bffffffffffffffffffffffffffffffffffffffffffffffffffffffff8381831617835250505050610a6e565b505050565b60008151905060006a636f6e736f6c652e6c6f679050602083016000808483855afa5050505050565b828054610aa39061116a565b90600052602060002090601f016020900481019282610ac55760008555610b0c565b82601f10610ade57805160ff1916838001178555610b0c565b82800160010185558215610b0c579182015b82811115610b0b578251825591602001919060010190610af0565b5b509050610b199190610b1d565b5090565b5b80821115610b36576000816000905550600101610b1e565b5090565b6000610b4d610b4884610ff4565b610fcf565b905082815260208101848484011115610b6557600080fd5b610b70848285611128565b509392505050565b600081359050610b8781611349565b92915050565b600082601f830112610b9e57600080fd5b8135610bae848260208601610b3a565b91505092915050565b600060208284031215610bc957600080fd5b6000610bd784828501610b78565b91505092915050565b600060208284031215610bf257600080fd5b600082013567ffffffffffffffff811115610c0c57600080fd5b610c1884828501610b8d565b91505092915050565b6000610c2d8383610dc6565b905092915050565b610c3e816110ec565b82525050565b610c4d816110ec565b82525050565b6000610c5e82611035565b610c688185611058565b935083602082028501610c7a85611025565b8060005b85811015610cb65784840389528151610c978582610c21565b9450610ca28361104b565b925060208a01995050600181019050610c7e565b50829750879550505050505092915050565b6000610cd382611040565b610cdd8185611074565b9350610ced818560208601611137565b610cf6816112ba565b840191505092915050565b6000610d0c82611040565b610d168185611085565b9350610d26818560208601611137565b610d2f816112ba565b840191505092915050565b6000610d47600f83611085565b9150610d52826112cb565b602082019050919050565b6000610d6a601883611085565b9150610d75826112f4565b602082019050919050565b6000610d8d600083611069565b9150610d988261131d565b600082019050919050565b6000610db0600c83611085565b9150610dbb82611320565b602082019050919050565b6000606083016000830151610dde6000860182610c35565b5060208301518482036020860152610df68282610cc8565b9150506040830151610e0b6040860182610e16565b508091505092915050565b610e1f8161111e565b82525050565b610e2e8161111e565b82525050565b6000610e3f82610d80565b9150819050919050565b60006020820190508181036000830152610e638184610c53565b905092915050565b60006020820190508181036000830152610e858184610d01565b905092915050565b60006040820190508181036000830152610ea78185610d01565b9050610eb66020830184610c44565b9392505050565b60006060820190508181036000830152610ed78186610d01565b9050610ee66020830185610c44565b610ef36040830184610e25565b949350505050565b60006040820190508181036000830152610f158185610d01565b9050610f246020830184610e25565b9392505050565b60006020820190508181036000830152610f4481610d3a565b9050919050565b60006020820190508181036000830152610f6481610d5d565b9050919050565b60006020820190508181036000830152610f8481610da3565b9050919050565b6000602082019050610fa06000830184610e25565b92915050565b6000604082019050610fbb6000830185610e25565b610fc86020830184610e25565b9392505050565b6000610fd9610fea565b9050610fe5828261119c565b919050565b6000604051905090565b600067ffffffffffffffff82111561100f5761100e61128b565b5b611018826112ba565b9050602081019050919050565b6000819050602082019050919050565b600081519050919050565b600081519050919050565b6000602082019050919050565b600082825260208201905092915050565b600081905092915050565b600082825260208201905092915050565b600082825260208201905092915050565b60006110a18261111e565b91506110ac8361111e565b9250827fffffffffffffffffffffffffffffffffffffffffffffffffffffffffffffffff038211156110e1576110e06111fe565b5b828201905092915050565b60006110f7826110fe565b9050919050565b600073ffffffffffffffffffffffffffffffffffffffff82169050919050565b6000819050919050565b82818337600083830152505050565b60005b8381101561115557808201518184015260208101905061113a565b83811115611164576000848401525b50505050565b6000600282049050600182168061118257607f821691505b602082108114156111965761119561125c565b5b50919050565b6111a5826112ba565b810181811067ffffffffffffffff821117156111c4576111c361128b565b5b80604052505050565b60006111d88261111e565b91506111e38361111e565b9250826111f3576111f261122d565b5b828206905092915050565b7f4e487b7100000000000000000000000000000000000000000000000000000000600052601160045260246000fd5b7f4e487b7100000000000000000000000000000000000000000000000000000000600052601260045260246000fd5b7f4e487b7100000000000000000000000000000000000000000000000000000000600052602260045260246000fd5b7f4e487b7100000000000000000000000000000000000000000000000000000000600052604160045260246000fd5b6000601f19601f8301169050919050565b7f5769746864726177206661696c65640000000000000000000000000000000000600082015250565b7f596f752063616e2774207761766520746f6f206f6674656e0000000000000000600082015250565b50565b7f456e6f7567682065746865720000000000000000000000000000000000000000600082015250565b611352816110ec565b811461135d57600080fd5b5056fea2646970667358221220bad36181d8e4e3aa8933d835ba2ca89d38258605f7cc7669d3cb8a82d8fef79b64736f6c63430008040033",
  "linkReferences": {},
  "deployedLinkReferences": {}
}